:1000000002308A00A12A0000C430F437A030E43165
:100010003D1025265510D61E25182E1966108A0665
:1000200000008E30F7002808F8002708F900FA01D0
:10003000F808031D25287908F800F9010830F702AF
:10004000F808031D2528F7012D280310F81B2C287C
:10005000F90DF80DF7032528F8138A11EF2A340853
:1000600003199F28BC00380803199F28BC070318F0
:1000700040287F30BC02031C9F2803199F28442876
:100080008130BC0703189F283C08F700F801F901EC
:10009000FA013508C000C0173608BF003708BE0097
:1000A0001830BC00BD013E1C6D283B08FA07031C3C
:1000B0005F28F90A031D5F28F80A0319BD173A08DB
:1000C000F907031C6628F80A0319BD173908B6009A
:1000D000B6173608F8070318BD17BD0DF80CF90C54
:1000E000FA0CC00CBF0CBE0C0310BC0B5228013024
:1000F000F70703189F28F81B8428C00DFA0DF90D87
:10010000F80DF70303199F28C01F9528FA0A031D4D
:100110009528F90A031D9528F80A031D9528F80C5F
:10012000F90CFA0CF70A03199F283508BD003908A5
:10013000BD06BD1F9D28F817A328F813A328F701B3
:10014000F801F901FA0108000B08A8008B138316C7
:1001500003178C170C140000000083120313A81B54
:100160008B170318DC2803170C087F390313A8002A
:1001700003170D080313A90003170F080313AA00A0
:1001800028080C1EC1289900290803178D000313A5
:100190002A0803178F0003130B08AB008B13831679
:1001A00003178C170C140000000083120313AB1B01
:1001B0008B17A70BDC28FC2803170C0D0E0D7F39BD
:1001C0000313A80003170D080313A90003170F0852
:1001D0000313AA0028080C1EEB289900290803170E
:1001E0008D0003132A0803178F008D0A03198F0A45
:1001F00003100313A70BA4288A11122BAF010408C4
:10020000AE002F10831B2F14280EF038AA00AA0767
:10021000E23EAB00323EAD0028080F39AB07AB071A
:10022000AD07E93EAC00AC07AC07270E0F39AC07B1
:10023000AD07AC0DAD0DAD09AD0D27080F39AD07FC
:10024000AA0D0730A9000A30AD07AC03031C24290E
:10025000AC07AB03031C2829AB07AA03031C2C29FA
:10026000AA07A903031C302929308400831307300F
:100270002E052E1384072D30040203192E170008B3
:10028000F700031D4B292E1B4B292E1A5329AE199B
:100290004B2920304E29AE152E123030F707770843
:1002A0000C1E50299900840A2E1F3B298A11192BF4
:1002B00083185D293C3084008313F701F801F901AC
:1002C000FA01BC01BD01BE01BF013B083A0439047B
:1002D000380403199B292030C0000310B40DB50D5C
:1002E000B60DB70DBC0DBD0DBE0DBF0D3B083F02D9
:1002F000031D84293A083E02031D842939083D0262
:10030000031D842938083C02031C95293808BC02C7
:100310003908031C390FBD023A08031C3A0FBE020C
:100320003B08031C3B0FBF020314F70DF80DF90D3A
:10033000FA0DC00B6D293C088000840A3D0880003E
:10034000840A3E088000840A3F08800008000408F0
:10035000AC002B08AE000319C6292A08B7002908EB
:10036000B6002808B5002708B400BB01BA01203048
:10037000B9008230B8002F207A08AA007908A900B5
:100380007808A8007708A700AE0BAD292A08B700A7
:100390002908B6002808B5002708B4003408B63C80
:1003A000B400FA013508B800B5170310B50CB60C47
:1003B000B70CFA0CF90CF80CF70CB40BD529B81FD4
:1003C000EC29F709F809F909FA09F70A0319F80AF3
:1003D0000319F90A0319FA0A7A08AA007908A90088
:1003E0007808A8007708A700AA1F032AAC03AC1658
:1003F000A709A809A909AA09A70A0319A80A03199C
:10040000A90A0319AA0A3B30B3009A30B200CA30D5
:10041000B100B0010A30AE002B080319AC0A8314F6
:100420002730840083132A08B7002908B60028085B
:10043000B5002708B4003308BB003208BA00310801
:10044000B9003008B80058217808F708031D3B2A86
:100450002B0A2E0203193B2A2C0803193D2A0F39B7
:100460002E020319352A0318712AAC1B712A2C1B82
:100470003D2A20306C2A2030AC05AC1E4C2AAC1230
:100480002B08031DAC037708AC002D300C1E462A48
:1004900099002C08F700AC012B082E02031D5B2AE3
:1004A0007708AC002E300C1E532A99002C08F70058
:1004B0002030AC0500303030AC1E6C2AAC122B085A
:1004C000031DAC037708AC002D300C1E652A990083
:1004D0002C08F700AC013030F70777080C1E6E2AA5
:1004E000990083103308B7003208B6003108B50010
:1004F0003008B400BB01BA01B9010A30B800582174
:100500007A08B3007908B2007808B1007708B00023
:10051000AE0B0F2A8A11322B283084008313000877
:1005200003199F2A0230F800F701F70B952AF80B00
:10053000942A9730F700F70B9B2A800B922A8A1196
:10054000432B03081F398300723083168F009001FC
:100550000F088312A0010C3083169900A230980076
:1005600090308312980083161F129F121B08803947
:100570009B0007309C0083131F1783121F139F17C4
:1005800083169F1783121F1483161F129F121B08B6
:10059000803903389B00F030860081138611831266
:1005A000861583168601FF30831286000030F8001E
:1005B0001F08C73978049F000630F700F70BDE2AC2
:1005C00000001F151F19E22A83161E088312A100BE
:1005D0001E08A2002208A8002108A70011287A08F6
:1005E000B7007908B6007808B5007708B4000A307B
:1005F000BB002830BA002030B9007730B8002F2077
:100600007A08A6007908A5007808A4007708A30056
:10061000043003178D0000308F0003100A300313DD
:10062000A700A428103084002208A8002108A700F1
:10063000FE2820300C1E1A2B990056300C1E1E2B43
:1006400099003D300C1E222B9900C93084002608E9
:10065000AA002508A9002408A8002308A700023042
:10066000AB00A72920300C1E332B99000A300C1E3A
:10067000372B99000D300C1E3B2B99000230A70040
:10068000C830A8008C2AA70B402B8316CE2A630003
:04400E00303FFF3F01
:00000001FF
;PIC16F88
;CRC=8EB5  CREATED="21-oct.-20 09:18"
