:1000000001308A009D290000FF00030E8301A50036
:100010007F08A4000A08AF008A01A40E0408A60005
:100020002008A7002108A8002208A9002308AA0088
:1000300083161B088312AB00831618088312AC00CA
:1000400083161A088312AD00831617088312AE00B8
:10005000831383128C308400801E30288C1A57281A
:100060008C308400001C36280C185928260884007F
:100070002708A0002808A1002908A2002A08A30038
:100080002B0883169B0083122C088316980083127A
:100090002D0883169A0083122E0883169700831268
:1000A0002F088A00250E8300FF0E7F0E09008A119B
:1000B00074298A11E3280B08B3008B1383169C174D
:1000C0001C14000000008312B31B8B1783161A0840
:1000D0007F390319AD288312B30083161B088312DE
:1000E000B400831618088312B50033088C1C7628D8
:1000F0009500340883169B008312350883169800F8
:1001000083120B08B6008B1383169C171C14000077
:1001100000008312B61B8B1783161A0D170D7F393B
:100120000319AD288312B30083161B088312B40091
:10013000831618088312B50033088C1C9D2895007F
:10014000340883169B0083123508831698009B0A97
:100150000319980A83125B288316831208008C1EE9
:10016000AF281708B0001408A100B01CB928171256
:1001700017160800B401B3013408023C031CE2283E
:10018000031DC6283308573C031CE2288C1ECA28CE
:10019000AF20DE280230B500F930B6000330B602D9
:1001A000031CDC2836308400831300080319DC2884
:1001B000DA28DA28800BD928B50BCC28B30A031922
:1001C000B40ABC2808008316071001308312870682
:1001D0007A3083169B000130980083125B200D302B
:1001E0008C1CF02895000A308C1CF4289500BA204D
:1001F000803083169B000130980083125B200D3005
:100200008C1C002995000A308C1C04299500BA200A
:10021000863083169B000130980083120B08B300D0
:100220008B1383169C171C14000000008312B31B51
:100230008B1783161A087F3903195E298312B300BE
:1002400083161B088312B400831618088312B500A6
:1002500033088C1C29299500340883169B008312CF
:1002600035088316980083120B08B6008B1383168B
:100270009C171C14000000008312B61B8B178316FA
:100280001A0D170D7F3903195E298312B3008316E7
:100290001B088312B400831618088312B5003308B4
:1002A0008C1C50299500340883169B008312350856
:1002B000831698009B0A0319980A0D298312BA2005
:1002C000BA20993083169B000130980083125B207E
:1002D0000D308C1C692995000A308C1C6D29950005
:1002E000BA200C108A113628AF202108B3008C12D6
:1002F0008A113628412AAB21D7264F22C51E33004A
:10030000412AAB214928CD2AD81E3100412AAB21F0
:10031000D72941283D11D337EE376633AB15221666
:100320002238E139F33B6F396411AC192C1A8A0673
:100330000000412A2B29532A000003081F3983009B
:10034000B00191155630930000309200A63096000F
:1003500090309700B201B1011F1300308316910055
:1003600083129A0107309900831335309000831669
:0E0370000C148C16C03083128B04BD29630060
:02400E00E23F8F
:00000001FF
;PIC16F688
;CRC=5353  CREATED="01-sept.-21 16:24"
