:1000000000308A0065280000FF00030E8301A50070
:100010007F08A4000A08AB008A01A40E0408A60009
:100020002008A7002108A8002208A9002308AA0088
:10003000831383128C308400001C20280C18312874
:10004000260884002708A0002808A1002908A2008B
:100050002A08A3002B088A00250E8300FF0E7F0EBE
:1000600009008A113328831607100130831287068E
:10007000831687148312871846282C18462883165F
:1000800087122030831287062C144D28831687147C
:100090008312871C4D282C182C10831607158312E9
:1000A00007195B28AC185B288316071210308312DF
:1000B0008706AC146228831607158312071D622871
:1000C000AC18AC100C108A11202803081F398300CB
:1000D000713083168F0090010F0883121F130030B8
:1000E0008316910083129A010730990083132530FB
:1000F0009000713083168F0090010F080C14C030EF
:0A01000083128B04AC018328630016
:02400E00E43C90
:00000001FF
;PIC16F688
;CRC=C9FE  CREATED="06-mar.-20 11:24"
